{
  "contractName": "Marketplace",
  "abi": [
    {
      "inputs": [],
      "stateMutability": "nonpayable",
      "type": "constructor"
    },
    {
      "anonymous": false,
      "inputs": [
        {
          "indexed": true,
          "internalType": "address",
          "name": "_owner",
          "type": "address"
        },
        {
          "indexed": true,
          "internalType": "address",
          "name": "_approved",
          "type": "address"
        },
        {
          "indexed": true,
          "internalType": "uint256",
          "name": "_tokenId",
          "type": "uint256"
        }
      ],
      "name": "Approval",
      "type": "event"
    },
    {
      "anonymous": false,
      "inputs": [
        {
          "indexed": true,
          "internalType": "uint256",
          "name": "_listing",
          "type": "uint256"
        }
      ],
      "name": "ListingCanceled",
      "type": "event"
    },
    {
      "anonymous": false,
      "inputs": [
        {
          "indexed": true,
          "internalType": "address",
          "name": "_contract",
          "type": "address"
        },
        {
          "indexed": true,
          "internalType": "uint256",
          "name": "_token",
          "type": "uint256"
        },
        {
          "indexed": true,
          "internalType": "address",
          "name": "_seller",
          "type": "address"
        },
        {
          "indexed": false,
          "internalType": "uint256",
          "name": "_price",
          "type": "uint256"
        }
      ],
      "name": "ListingCreated",
      "type": "event"
    },
    {
      "anonymous": false,
      "inputs": [
        {
          "indexed": true,
          "internalType": "uint256",
          "name": "_listing",
          "type": "uint256"
        }
      ],
      "name": "ListingSold",
      "type": "event"
    },
    {
      "anonymous": false,
      "inputs": [
        {
          "indexed": false,
          "internalType": "uint256",
          "name": "id",
          "type": "uint256"
        },
        {
          "indexed": false,
          "internalType": "string",
          "name": "_name",
          "type": "string"
        },
        {
          "indexed": false,
          "internalType": "uint256",
          "name": "_dna",
          "type": "uint256"
        }
      ],
      "name": "NewTurkey",
      "type": "event"
    },
    {
      "anonymous": false,
      "inputs": [
        {
          "indexed": true,
          "internalType": "address",
          "name": "previousOwner",
          "type": "address"
        },
        {
          "indexed": true,
          "internalType": "address",
          "name": "newOwner",
          "type": "address"
        }
      ],
      "name": "OwnershipTransferred",
      "type": "event"
    },
    {
      "anonymous": false,
      "inputs": [
        {
          "indexed": true,
          "internalType": "address",
          "name": "_from",
          "type": "address"
        },
        {
          "indexed": true,
          "internalType": "address",
          "name": "_to",
          "type": "address"
        },
        {
          "indexed": true,
          "internalType": "uint256",
          "name": "_tokenId",
          "type": "uint256"
        }
      ],
      "name": "Transfer",
      "type": "event"
    },
    {
      "inputs": [
        {
          "internalType": "address",
          "name": "_approved",
          "type": "address"
        },
        {
          "internalType": "uint256",
          "name": "_tokenId",
          "type": "uint256"
        }
      ],
      "name": "approve",
      "outputs": [],
      "stateMutability": "payable",
      "type": "function",
      "payable": true
    },
    {
      "inputs": [
        {
          "internalType": "address",
          "name": "_owner",
          "type": "address"
        }
      ],
      "name": "balanceOf",
      "outputs": [
        {
          "internalType": "uint256",
          "name": "",
          "type": "uint256"
        }
      ],
      "stateMutability": "view",
      "type": "function",
      "constant": true
    },
    {
      "inputs": [
        {
          "internalType": "string",
          "name": "_name",
          "type": "string"
        }
      ],
      "name": "generateRandomTurkey",
      "outputs": [],
      "stateMutability": "nonpayable",
      "type": "function"
    },
    {
      "inputs": [
        {
          "internalType": "uint256",
          "name": "",
          "type": "uint256"
        }
      ],
      "name": "listings",
      "outputs": [
        {
          "internalType": "address",
          "name": "contract_",
          "type": "address"
        },
        {
          "internalType": "uint256",
          "name": "token",
          "type": "uint256"
        },
        {
          "internalType": "address",
          "name": "seller",
          "type": "address"
        },
        {
          "internalType": "uint256",
          "name": "price",
          "type": "uint256"
        },
        {
          "internalType": "enum IMarket.Status",
          "name": "status",
          "type": "uint8"
        }
      ],
      "stateMutability": "view",
      "type": "function",
      "constant": true
    },
    {
      "inputs": [],
      "name": "owner",
      "outputs": [
        {
          "internalType": "address",
          "name": "",
          "type": "address"
        }
      ],
      "stateMutability": "view",
      "type": "function",
      "constant": true
    },
    {
      "inputs": [
        {
          "internalType": "uint256",
          "name": "_tokenId",
          "type": "uint256"
        }
      ],
      "name": "ownerOf",
      "outputs": [
        {
          "internalType": "address",
          "name": "",
          "type": "address"
        }
      ],
      "stateMutability": "view",
      "type": "function",
      "constant": true
    },
    {
      "inputs": [
        {
          "internalType": "address",
          "name": "",
          "type": "address"
        }
      ],
      "name": "ownerTurkeyCount",
      "outputs": [
        {
          "internalType": "uint256",
          "name": "",
          "type": "uint256"
        }
      ],
      "stateMutability": "view",
      "type": "function",
      "constant": true
    },
    {
      "inputs": [],
      "name": "renounceOwnership",
      "outputs": [],
      "stateMutability": "nonpayable",
      "type": "function"
    },
    {
      "inputs": [
        {
          "internalType": "address",
          "name": "_from",
          "type": "address"
        },
        {
          "internalType": "address",
          "name": "_to",
          "type": "address"
        },
        {
          "internalType": "uint256",
          "name": "_tokenId",
          "type": "uint256"
        }
      ],
      "name": "transferFrom",
      "outputs": [],
      "stateMutability": "payable",
      "type": "function",
      "payable": true
    },
    {
      "inputs": [
        {
          "internalType": "address",
          "name": "newOwner",
          "type": "address"
        }
      ],
      "name": "transferOwnership",
      "outputs": [],
      "stateMutability": "nonpayable",
      "type": "function"
    },
    {
      "inputs": [
        {
          "internalType": "uint256",
          "name": "",
          "type": "uint256"
        }
      ],
      "name": "turkeyToOwner",
      "outputs": [
        {
          "internalType": "address",
          "name": "",
          "type": "address"
        }
      ],
      "stateMutability": "view",
      "type": "function",
      "constant": true
    },
    {
      "inputs": [
        {
          "internalType": "uint256",
          "name": "",
          "type": "uint256"
        }
      ],
      "name": "turkeys",
      "outputs": [
        {
          "internalType": "string",
          "name": "name",
          "type": "string"
        },
        {
          "internalType": "uint256",
          "name": "dna",
          "type": "uint256"
        }
      ],
      "stateMutability": "view",
      "type": "function",
      "constant": true
    },
    {
      "inputs": [],
      "name": "listingCreationPrice",
      "outputs": [
        {
          "internalType": "uint256",
          "name": "",
          "type": "uint256"
        }
      ],
      "stateMutability": "pure",
      "type": "function",
      "constant": true
    },
    {
      "inputs": [],
      "name": "listingPurchaseFee",
      "outputs": [
        {
          "internalType": "uint256",
          "name": "",
          "type": "uint256"
        }
      ],
      "stateMutability": "pure",
      "type": "function",
      "constant": true
    },
    {
      "inputs": [],
      "name": "activeListings",
      "outputs": [
        {
          "internalType": "uint256[]",
          "name": "",
          "type": "uint256[]"
        }
      ],
      "stateMutability": "view",
      "type": "function",
      "constant": true
    },
    {
      "inputs": [
        {
          "internalType": "uint256",
          "name": "_listing",
          "type": "uint256"
        }
      ],
      "name": "getListing",
      "outputs": [
        {
          "components": [
            {
              "internalType": "address",
              "name": "contract_",
              "type": "address"
            },
            {
              "internalType": "uint256",
              "name": "token",
              "type": "uint256"
            },
            {
              "internalType": "address",
              "name": "seller",
              "type": "address"
            },
            {
              "internalType": "uint256",
              "name": "price",
              "type": "uint256"
            },
            {
              "internalType": "enum IMarket.Status",
              "name": "status",
              "type": "uint8"
            }
          ],
          "internalType": "struct IMarket.Listing",
          "name": "",
          "type": "tuple"
        }
      ],
      "stateMutability": "view",
      "type": "function",
      "constant": true
    },
    {
      "inputs": [
        {
          "internalType": "address",
          "name": "_contract",
          "type": "address"
        },
        {
          "internalType": "uint256",
          "name": "_token",
          "type": "uint256"
        },
        {
          "internalType": "uint256",
          "name": "_price",
          "type": "uint256"
        }
      ],
      "name": "createListing",
      "outputs": [
        {
          "internalType": "uint256",
          "name": "listing",
          "type": "uint256"
        }
      ],
      "stateMutability": "payable",
      "type": "function",
      "payable": true
    },
    {
      "inputs": [
        {
          "internalType": "uint256",
          "name": "_listing",
          "type": "uint256"
        }
      ],
      "name": "cancelListing",
      "outputs": [],
      "stateMutability": "nonpayable",
      "type": "function"
    },
    {
      "inputs": [
        {
          "internalType": "uint256",
          "name": "_listing",
          "type": "uint256"
        }
      ],
      "name": "purchase",
      "outputs": [],
      "stateMutability": "payable",
      "type": "function",
      "payable": true
    }
  ],
  "bytecode": "0x6080604052600a600055600054600a6200001a91906200017a565b6001553480156200002a57600080fd5b506200004b6200003f6200005160201b60201c565b6200005960201b60201c565b620002fd565b600033905090565b6000600660009054906101000a900473ffffffffffffffffffffffffffffffffffffffff16905081600660006101000a81548173ffffffffffffffffffffffffffffffffffffffff021916908373ffffffffffffffffffffffffffffffffffffffff1602179055508173ffffffffffffffffffffffffffffffffffffffff168173ffffffffffffffffffffffffffffffffffffffff167f8be0079c531659141344cd1fd0a4f28419497f9722a3daafe3b4186f6b6457e060405160405180910390a35050565b6000808291508390505b60018511156200017157808604811115620001495762000148620002c1565b5b6001851615620001595780820291505b80810290506200016985620002f0565b945062000129565b94509492505050565b60006200018782620002b7565b91506200019483620002b7565b9250620001c37fffffffffffffffffffffffffffffffffffffffffffffffffffffffffffffffff8484620001cb565b905092915050565b600082620001dd5760019050620002b0565b81620001ed5760009050620002b0565b8160018114620002065760028114620002115762000247565b6001915050620002b0565b60ff841115620002265762000225620002c1565b5b8360020a91508482111562000240576200023f620002c1565b5b50620002b0565b5060208310610133831016604e8410600b8410161715620002815782820a9050838111156200027b576200027a620002c1565b5b620002b0565b6200029084848460016200011f565b92509050818404811115620002aa57620002a9620002c1565b5b81810290505b9392505050565b6000819050919050565b7f4e487b7100000000000000000000000000000000000000000000000000000000600052601160045260246000fd5b60008160011c9050919050565b611ec7806200030d6000396000f3fe6080604052600436106101145760003560e01c8063715018a6116100a0578063d3a17f2911610064578063d3a17f29146103af578063de74e57b146103da578063ed3fb36b1461041b578063efef39a114610446578063f2fde38b1461046257610114565b8063715018a6146102db578063856b9502146102f25780638da5cb5b1461031b57806396eaef2e14610346578063c71895071461038457610114565b80632de11cf4116100e75780632de11cf4146101be5780632e38d0b7146101fb578063305a67a8146102385780636352211e1461026157806370a082311461029e57610114565b8063095ea7b314610119578063107a274a1461013557806323b872dd1461017257806324780c561461018e575b600080fd5b610133600480360381019061012e9190611532565b61048b565b005b34801561014157600080fd5b5061015c6004803603810190610157919061160e565b61053c565b604051610169919061193a565b60405180910390f35b61018c600480360381019061018791906114df565b610673565b005b6101a860048036038101906101a39190611572565b610683565b6040516101b59190611955565b60405180910390f35b3480156101ca57600080fd5b506101e560048036038101906101e0919061160e565b610805565b6040516101f2919061183a565b60405180910390f35b34801561020757600080fd5b50610222600480360381019061021d91906114b2565b610838565b60405161022f9190611955565b60405180910390f35b34801561024457600080fd5b5061025f600480360381019061025a919061160e565b610850565b005b34801561026d57600080fd5b506102886004803603810190610283919061160e565b6108a1565b604051610295919061183a565b60405180910390f35b3480156102aa57600080fd5b506102c560048036038101906102c091906114b2565b6108de565b6040516102d29190611955565b60405180910390f35b3480156102e757600080fd5b506102f0610927565b005b3480156102fe57600080fd5b50610319600480360381019061031491906115c5565b6109af565b005b34801561032757600080fd5b506103306109ca565b60405161033d919061183a565b60405180910390f35b34801561035257600080fd5b5061036d6004803603810190610368919061160e565b6109f4565b60405161037b9291906118ca565b60405180910390f35b34801561039057600080fd5b50610399610ab0565b6040516103a69190611955565b60405180910390f35b3480156103bb57600080fd5b506103c4610ab9565b6040516103d191906118a8565b60405180910390f35b3480156103e657600080fd5b5061040160048036038101906103fc919061160e565b610bc5565b604051610412959493929190611855565b60405180910390f35b34801561042757600080fd5b50610430610c58565b60405161043d9190611955565b60405180910390f35b610460600480360381019061045b919061160e565b610c61565b005b34801561046e57600080fd5b50610489600480360381019061048491906114b2565b610de4565b005b816005600083815260200190815260200160002060006101000a81548173ffffffffffffffffffffffffffffffffffffffff021916908373ffffffffffffffffffffffffffffffffffffffff160217905550808273ffffffffffffffffffffffffffffffffffffffff163373ffffffffffffffffffffffffffffffffffffffff167f8c5be1e5ebec7d5bd14f71427d1e84f3dd0314c0f7b2291e5b200ac8c7c3b92560405160405180910390a45050565b610544611308565b6007828154811061055857610557611d54565b5b90600052602060002090600502016040518060a00160405290816000820160009054906101000a900473ffffffffffffffffffffffffffffffffffffffff1673ffffffffffffffffffffffffffffffffffffffff1673ffffffffffffffffffffffffffffffffffffffff168152602001600182015481526020016002820160009054906101000a900473ffffffffffffffffffffffffffffffffffffffff1673ffffffffffffffffffffffffffffffffffffffff1673ffffffffffffffffffffffffffffffffffffffff168152602001600382015481526020016004820160009054906101000a900460ff16600281111561065657610655611cf6565b5b600281111561066857610667611cf6565b5b815250509050919050565b61067e838383610edc565b505050565b600060076040518060a001604052808673ffffffffffffffffffffffffffffffffffffffff1681526020018581526020013373ffffffffffffffffffffffffffffffffffffffff168152602001848152602001600160028111156106ea576106e9611cf6565b5b815250908060018154018082558091505060019003906000526020600020906005020160009091909190915060008201518160000160006101000a81548173ffffffffffffffffffffffffffffffffffffffff021916908373ffffffffffffffffffffffffffffffffffffffff1602179055506020820151816001015560408201518160020160006101000a81548173ffffffffffffffffffffffffffffffffffffffff021916908373ffffffffffffffffffffffffffffffffffffffff1602179055506060820151816003015560808201518160040160006101000a81548160ff021916908360028111156107e3576107e2611cf6565b5b0217905550505060016007805490506107fc9190611aba565b90509392505050565b60026020528060005260406000206000915054906101000a900473ffffffffffffffffffffffffffffffffffffffff1681565b60036020528060005260406000206000915090505481565b60006007828154811061086657610865611d54565b5b906000526020600020906005020160040160006101000a81548160ff0219169083600281111561089957610898611cf6565b5b021790555050565b60006002600083815260200190815260200160002060009054906101000a900473ffffffffffffffffffffffffffffffffffffffff169050919050565b6000600360008373ffffffffffffffffffffffffffffffffffffffff1673ffffffffffffffffffffffffffffffffffffffff168152602001908152602001600020549050919050565b61092f611038565b73ffffffffffffffffffffffffffffffffffffffff1661094d6109ca565b73ffffffffffffffffffffffffffffffffffffffff16146109a3576040517f08c379a000000000000000000000000000000000000000000000000000000000815260040161099a9061191a565b60405180910390fd5b6109ad6000611040565b565b60006109ba82611106565b90506109c6828261114b565b5050565b6000600660009054906101000a900473ffffffffffffffffffffffffffffffffffffffff16905090565b60048181548110610a0457600080fd5b9060005260206000209060020201600091509050806000018054610a2790611bbb565b80601f0160208091040260200160405190810160405280929190818152602001828054610a5390611bbb565b8015610aa05780601f10610a7557610100808354040283529160200191610aa0565b820191906000526020600020905b815481529060010190602001808311610a8357829003601f168201915b5050505050908060010154905082565b60006002905090565b6060600060078054905067ffffffffffffffff811115610adc57610adb611d83565b5b604051908082528060200260200182016040528015610b0a5781602001602082028036833780820191505090505b50905060005b6007805490508111610bbd5760016002811115610b3057610b2f611cf6565b5b60078281548110610b4457610b43611d54565b5b906000526020600020906005020160040160009054906101000a900460ff166002811115610b7557610b74611cf6565b5b1415610baa5780828281518110610b8f57610b8e611d54565b5b6020026020010181815250508080610ba690611c1e565b9150505b8080610bb590611c1e565b915050610b10565b508091505090565b60078181548110610bd557600080fd5b90600052602060002090600502016000915090508060000160009054906101000a900473ffffffffffffffffffffffffffffffffffffffff16908060010154908060020160009054906101000a900473ffffffffffffffffffffffffffffffffffffffff16908060030154908060040160009054906101000a900460ff16905085565b60006005905090565b610cd660078281548110610c7857610c77611d54565b5b906000526020600020906005020160020160009054906101000a900473ffffffffffffffffffffffffffffffffffffffff163360078481548110610cbf57610cbe611d54565b5b906000526020600020906005020160010154610673565b600260078281548110610cec57610ceb611d54565b5b906000526020600020906005020160040160006101000a81548160ff02191690836002811115610d1f57610d1e611cf6565b5b02179055503460078281548110610d3957610d38611d54565b5b90600052602060002090600502016003015414610d5557600080fd5b60078181548110610d6957610d68611d54565b5b906000526020600020906005020160020160009054906101000a900473ffffffffffffffffffffffffffffffffffffffff1673ffffffffffffffffffffffffffffffffffffffff166108fc349081150290604051600060405180830381858888f19350505050158015610de0573d6000803e3d6000fd5b5050565b610dec611038565b73ffffffffffffffffffffffffffffffffffffffff16610e0a6109ca565b73ffffffffffffffffffffffffffffffffffffffff1614610e60576040517f08c379a0000000000000000000000000000000000000000000000000000000008152600401610e579061191a565b60405180910390fd5b600073ffffffffffffffffffffffffffffffffffffffff168173ffffffffffffffffffffffffffffffffffffffff161415610ed0576040517f08c379a0000000000000000000000000000000000000000000000000000000008152600401610ec7906118fa565b60405180910390fd5b610ed981611040565b50565b600360008373ffffffffffffffffffffffffffffffffffffffff1673ffffffffffffffffffffffffffffffffffffffff1681526020019081526020016000206000815480929190610f2c90611c1e565b9190505550600360008473ffffffffffffffffffffffffffffffffffffffff1673ffffffffffffffffffffffffffffffffffffffff1681526020019081526020016000206000815480929190610f8190611b91565b9190505550816002600083815260200190815260200160002060006101000a81548173ffffffffffffffffffffffffffffffffffffffff021916908373ffffffffffffffffffffffffffffffffffffffff160217905550808273ffffffffffffffffffffffffffffffffffffffff168473ffffffffffffffffffffffffffffffffffffffff167fddf252ad1be2c89b69c2b068fc378daa952ba7f163c4a11628f55a4df523b3ef60405160405180910390a4505050565b600033905090565b6000600660009054906101000a900473ffffffffffffffffffffffffffffffffffffffff16905081600660006101000a81548173ffffffffffffffffffffffffffffffffffffffff021916908373ffffffffffffffffffffffffffffffffffffffff1602179055508173ffffffffffffffffffffffffffffffffffffffff168173ffffffffffffffffffffffffffffffffffffffff167f8be0079c531659141344cd1fd0a4f28419497f9722a3daafe3b4186f6b6457e060405160405180910390a35050565b6000808260405160200161111a9190611823565b6040516020818303038152906040528051906020012060001c9050600154816111439190611c67565b915050919050565b6004604051806040016040528084815260200183815250908060018154018082558091505060019003906000526020600020906002020160009091909190915060008201518160000190805190602001906111a7929190611375565b50602082015181600101555050600060016004805490506111c89190611aba565b9050336002600083815260200190815260200160002060006101000a81548173ffffffffffffffffffffffffffffffffffffffff021916908373ffffffffffffffffffffffffffffffffffffffff16021790555061126f6001600360003373ffffffffffffffffffffffffffffffffffffffff1673ffffffffffffffffffffffffffffffffffffffff168152602001908152602001600020546112f290919063ffffffff16565b600360003373ffffffffffffffffffffffffffffffffffffffff1673ffffffffffffffffffffffffffffffffffffffff168152602001908152602001600020819055507f1b2ffdaa6c1215beb6a2eb83d53cb6f1d858bbc387927ba7c57aa390a2b065e98184846040516112e593929190611970565b60405180910390a1505050565b600081836113009190611a64565b905092915050565b6040518060a00160405280600073ffffffffffffffffffffffffffffffffffffffff16815260200160008152602001600073ffffffffffffffffffffffffffffffffffffffff168152602001600081526020016000600281111561136f5761136e611cf6565b5b81525090565b82805461138190611bbb565b90600052602060002090601f0160209004810192826113a357600085556113ea565b82601f106113bc57805160ff19168380011785556113ea565b828001600101855582156113ea579182015b828111156113e95782518255916020019190600101906113ce565b5b5090506113f791906113fb565b5090565b5b808211156114145760008160009055506001016113fc565b5090565b600061142b611426846119d3565b6119ae565b90508281526020810184848401111561144757611446611db7565b5b611452848285611b4f565b509392505050565b60008135905061146981611e63565b92915050565b600082601f83011261148457611483611db2565b5b8135611494848260208601611418565b91505092915050565b6000813590506114ac81611e7a565b92915050565b6000602082840312156114c8576114c7611dc1565b5b60006114d68482850161145a565b91505092915050565b6000806000606084860312156114f8576114f7611dc1565b5b60006115068682870161145a565b93505060206115178682870161145a565b92505060406115288682870161149d565b9150509250925092565b6000806040838503121561154957611548611dc1565b5b60006115578582860161145a565b92505060206115688582860161149d565b9150509250929050565b60008060006060848603121561158b5761158a611dc1565b5b60006115998682870161145a565b93505060206115aa8682870161149d565b92505060406115bb8682870161149d565b9150509250925092565b6000602082840312156115db576115da611dc1565b5b600082013567ffffffffffffffff8111156115f9576115f8611dbc565b5b6116058482850161146f565b91505092915050565b60006020828403121561162457611623611dc1565b5b60006116328482850161149d565b91505092915050565b60006116478383611805565b60208301905092915050565b61165c81611aee565b82525050565b61166b81611aee565b82525050565b600061167c82611a14565b6116868185611a37565b935061169183611a04565b8060005b838110156116c25781516116a9888261163b565b97506116b483611a2a565b925050600181019050611695565b5085935050505092915050565b6116d881611b3d565b82525050565b6116e781611b3d565b82525050565b60006116f882611a1f565b6117028185611a48565b9350611712818560208601611b5e565b61171b81611dc6565b840191505092915050565b600061173182611a1f565b61173b8185611a59565b935061174b818560208601611b5e565b80840191505092915050565b6000611764602683611a48565b915061176f82611dd7565b604082019050919050565b6000611787602083611a48565b915061179282611e26565b602082019050919050565b60a0820160008201516117b36000850182611653565b5060208201516117c66020850182611805565b5060408201516117d96040850182611653565b5060608201516117ec6060850182611805565b5060808201516117ff60808501826116cf565b50505050565b61180e81611b33565b82525050565b61181d81611b33565b82525050565b600061182f8284611726565b915081905092915050565b600060208201905061184f6000830184611662565b92915050565b600060a08201905061186a6000830188611662565b6118776020830187611814565b6118846040830186611662565b6118916060830185611814565b61189e60808301846116de565b9695505050505050565b600060208201905081810360008301526118c28184611671565b905092915050565b600060408201905081810360008301526118e481856116ed565b90506118f36020830184611814565b9392505050565b6000602082019050818103600083015261191381611757565b9050919050565b600060208201905081810360008301526119338161177a565b9050919050565b600060a08201905061194f600083018461179d565b92915050565b600060208201905061196a6000830184611814565b92915050565b60006060820190506119856000830186611814565b818103602083015261199781856116ed565b90506119a66040830184611814565b949350505050565b60006119b86119c9565b90506119c48282611bed565b919050565b6000604051905090565b600067ffffffffffffffff8211156119ee576119ed611d83565b5b6119f782611dc6565b9050602081019050919050565b6000819050602082019050919050565b600081519050919050565b600081519050919050565b6000602082019050919050565b600082825260208201905092915050565b600082825260208201905092915050565b600081905092915050565b6000611a6f82611b33565b9150611a7a83611b33565b9250827fffffffffffffffffffffffffffffffffffffffffffffffffffffffffffffffff03821115611aaf57611aae611c98565b5b828201905092915050565b6000611ac582611b33565b9150611ad083611b33565b925082821015611ae357611ae2611c98565b5b828203905092915050565b6000611af982611b13565b9050919050565b6000819050611b0e82611e4f565b919050565b600073ffffffffffffffffffffffffffffffffffffffff82169050919050565b6000819050919050565b6000611b4882611b00565b9050919050565b82818337600083830152505050565b60005b83811015611b7c578082015181840152602081019050611b61565b83811115611b8b576000848401525b50505050565b6000611b9c82611b33565b91506000821415611bb057611baf611c98565b5b600182039050919050565b60006002820490506001821680611bd357607f821691505b60208210811415611be757611be6611d25565b5b50919050565b611bf682611dc6565b810181811067ffffffffffffffff82111715611c1557611c14611d83565b5b80604052505050565b6000611c2982611b33565b91507fffffffffffffffffffffffffffffffffffffffffffffffffffffffffffffffff821415611c5c57611c5b611c98565b5b600182019050919050565b6000611c7282611b33565b9150611c7d83611b33565b925082611c8d57611c8c611cc7565b5b828206905092915050565b7f4e487b7100000000000000000000000000000000000000000000000000000000600052601160045260246000fd5b7f4e487b7100000000000000000000000000000000000000000000000000000000600052601260045260246000fd5b7f4e487b7100000000000000000000000000000000000000000000000000000000600052602160045260246000fd5b7f4e487b7100000000000000000000000000000000000000000000000000000000600052602260045260246000fd5b7f4e487b7100000000000000000000000000000000000000000000000000000000600052603260045260246000fd5b7f4e487b7100000000000000000000000000000000000000000000000000000000600052604160045260246000fd5b600080fd5b600080fd5b600080fd5b600080fd5b6000601f19601f8301169050919050565b7f4f776e61626c653a206e6577206f776e657220697320746865207a65726f206160008201527f6464726573730000000000000000000000000000000000000000000000000000602082015250565b7f4f776e61626c653a2063616c6c6572206973206e6f7420746865206f776e6572600082015250565b60038110611e6057611e5f611cf6565b5b50565b611e6c81611aee565b8114611e7757600080fd5b50565b611e8381611b33565b8114611e8e57600080fd5b5056fea26469706673582212209409448b7174840924bca2bdbb7aa743274b5a506277c86cc73c3fd7650d468864736f6c63430008070033",
  "immutableReferences": {},
  "source": "//SPDX-License-Identifier: UNLICENSED\npragma solidity ^0.8.7;\nimport \"./IMarket.sol\";\nimport \"./TurkeyFactory.sol\";\nimport \"./Ownable.sol\";\n\n//import \"./MyToken.sol\";\n//import \"@openzeppelin/contracts/token/ERC721/ERC721.sol\";\n\n\n\n\ncontract Marketplace is IMarket, TurkeyFactory, Ownable{\n    \n    Listing[] public listings; \n    \n    constructor(){\n        \n    }\n    \n    /// @dev The price of creating a new listing.\n    function listingCreationPrice() external override pure returns(uint){\n          return 2;\n    }\n\n    /// @dev Percentage of the purchasing price that is retained by the Market operator.\n    function listingPurchaseFee() external override pure returns(uint){\n          return 5;\n    }\n\n    /// @dev Get all active listings.\n    function activeListings() external override view returns(uint[] memory){\n    uint256[] memory _activeListings = new uint256[](listings.length);\n        for(uint i=0; i <= listings.length; i++){\n            if(listings[i].status == Status.Active){\n                _activeListings[i] = i;\n                i++;\n            }\n        }\n        return _activeListings;\n    }\n\n    /// @dev Get the details of a listing.\n    function getListing(uint _listing) external override view returns(Listing memory){\n        return listings[_listing];\n    }\n\n    /// @dev Create a new listing.\n    function createListing(address _contract, uint _token, uint _price) external override payable returns(uint listing){\n        listings.push(Listing(_contract, _token, msg.sender, _price, Status.Active));\n        listing = listings.length-1;\n        return listing;\n    }\n\n    /// @dev Cancel an active listing.\n    function cancelListing(uint _listing) external override{\n        listings[_listing].status = Status.Canceled;\n    }\n\n    /// @dev Purchase an active listing.\n    function purchase(uint _listing) external override payable{\n    \n        transferFrom(listings[_listing].seller, msg.sender, listings[_listing].token);\n        listings[_listing].status = Status.Sold;\n        require(listings[_listing].price == msg.value);\n        payable(listings[_listing].seller).transfer(msg.value);\n    }\n\n}\n",
  "sourcePath": "/Users/adifalcusan/Desktop/Synapsics-internship/marketplace/contracts/Marketplace.sol",
  "compiler": {
    "name": "solc",
    "version": "0.8.7+commit.e28d00a7.Emscripten.clang"
  },
  "schemaVersion": "3.4.3",
  "updatedAt": "2021-09-28T11:23:08.141Z",
  "networkType": "ethereum",
  "devdoc": {
    "kind": "dev",
    "methods": {
      "activeListings()": {
        "details": "Get all active listings."
      },
      "cancelListing(uint256)": {
        "details": "Cancel an active listing."
      },
      "createListing(address,uint256,uint256)": {
        "details": "Create a new listing."
      },
      "getListing(uint256)": {
        "details": "Get the details of a listing."
      },
      "listingCreationPrice()": {
        "details": "The price of creating a new listing."
      },
      "listingPurchaseFee()": {
        "details": "Percentage of the purchasing price that is retained by the Market operator."
      },
      "owner()": {
        "details": "Returns the address of the current owner."
      },
      "purchase(uint256)": {
        "details": "Purchase an active listing."
      },
      "renounceOwnership()": {
        "details": "Leaves the contract without owner. It will not be possible to call `onlyOwner` functions anymore. Can only be called by the current owner. NOTE: Renouncing ownership will leave the contract without an owner, thereby removing any functionality that is only available to the owner."
      },
      "transferOwnership(address)": {
        "details": "Transfers ownership of the contract to a new account (`newOwner`). Can only be called by the current owner."
      }
    },
    "version": 1
  },
  "userdoc": {
    "kind": "user",
    "methods": {},
    "version": 1
  }
}