{
  "contractName": "Marketplace",
  "abi": [
    {
      "inputs": [],
      "stateMutability": "nonpayable",
      "type": "constructor"
    },
    {
      "anonymous": false,
      "inputs": [
        {
          "indexed": true,
          "internalType": "address",
          "name": "_owner",
          "type": "address"
        },
        {
          "indexed": true,
          "internalType": "address",
          "name": "_approved",
          "type": "address"
        },
        {
          "indexed": true,
          "internalType": "uint256",
          "name": "_tokenId",
          "type": "uint256"
        }
      ],
      "name": "Approval",
      "type": "event"
    },
    {
      "anonymous": false,
      "inputs": [
        {
          "indexed": true,
          "internalType": "uint256",
          "name": "_listing",
          "type": "uint256"
        }
      ],
      "name": "ListingCanceled",
      "type": "event"
    },
    {
      "anonymous": false,
      "inputs": [
        {
          "indexed": true,
          "internalType": "address",
          "name": "_contract",
          "type": "address"
        },
        {
          "indexed": true,
          "internalType": "uint256",
          "name": "_token",
          "type": "uint256"
        },
        {
          "indexed": true,
          "internalType": "address",
          "name": "_seller",
          "type": "address"
        },
        {
          "indexed": false,
          "internalType": "uint256",
          "name": "_price",
          "type": "uint256"
        }
      ],
      "name": "ListingCreated",
      "type": "event"
    },
    {
      "anonymous": false,
      "inputs": [
        {
          "indexed": true,
          "internalType": "uint256",
          "name": "_listing",
          "type": "uint256"
        }
      ],
      "name": "ListingSold",
      "type": "event"
    },
    {
      "anonymous": false,
      "inputs": [
        {
          "indexed": false,
          "internalType": "uint256",
          "name": "id",
          "type": "uint256"
        },
        {
          "indexed": false,
          "internalType": "string",
          "name": "_name",
          "type": "string"
        },
        {
          "indexed": false,
          "internalType": "uint256",
          "name": "_dna",
          "type": "uint256"
        }
      ],
      "name": "NewTurkey",
      "type": "event"
    },
    {
      "anonymous": false,
      "inputs": [
        {
          "indexed": true,
          "internalType": "address",
          "name": "previousOwner",
          "type": "address"
        },
        {
          "indexed": true,
          "internalType": "address",
          "name": "newOwner",
          "type": "address"
        }
      ],
      "name": "OwnershipTransferred",
      "type": "event"
    },
    {
      "anonymous": false,
      "inputs": [
        {
          "indexed": true,
          "internalType": "address",
          "name": "_from",
          "type": "address"
        },
        {
          "indexed": true,
          "internalType": "address",
          "name": "_to",
          "type": "address"
        },
        {
          "indexed": true,
          "internalType": "uint256",
          "name": "_tokenId",
          "type": "uint256"
        }
      ],
      "name": "Transfer",
      "type": "event"
    },
    {
      "inputs": [
        {
          "internalType": "address",
          "name": "_approved",
          "type": "address"
        },
        {
          "internalType": "uint256",
          "name": "_tokenId",
          "type": "uint256"
        }
      ],
      "name": "approve",
      "outputs": [],
      "stateMutability": "payable",
      "type": "function"
    },
    {
      "inputs": [
        {
          "internalType": "address",
          "name": "_owner",
          "type": "address"
        }
      ],
      "name": "balanceOf",
      "outputs": [
        {
          "internalType": "uint256",
          "name": "",
          "type": "uint256"
        }
      ],
      "stateMutability": "view",
      "type": "function"
    },
    {
      "inputs": [
        {
          "internalType": "string",
          "name": "_name",
          "type": "string"
        }
      ],
      "name": "generateRandomTurkey",
      "outputs": [],
      "stateMutability": "nonpayable",
      "type": "function"
    },
    {
      "inputs": [
        {
          "internalType": "uint256",
          "name": "",
          "type": "uint256"
        }
      ],
      "name": "idToListing",
      "outputs": [
        {
          "internalType": "uint256",
          "name": "",
          "type": "uint256"
        }
      ],
      "stateMutability": "view",
      "type": "function"
    },
    {
      "inputs": [
        {
          "internalType": "uint256",
          "name": "",
          "type": "uint256"
        }
      ],
      "name": "listings",
      "outputs": [
        {
          "internalType": "address",
          "name": "contract_",
          "type": "address"
        },
        {
          "internalType": "uint256",
          "name": "token",
          "type": "uint256"
        },
        {
          "internalType": "address",
          "name": "seller",
          "type": "address"
        },
        {
          "internalType": "uint256",
          "name": "price",
          "type": "uint256"
        },
        {
          "internalType": "enum IMarket.Status",
          "name": "status",
          "type": "uint8"
        }
      ],
      "stateMutability": "view",
      "type": "function"
    },
    {
      "inputs": [],
      "name": "owner",
      "outputs": [
        {
          "internalType": "address",
          "name": "",
          "type": "address"
        }
      ],
      "stateMutability": "view",
      "type": "function"
    },
    {
      "inputs": [
        {
          "internalType": "uint256",
          "name": "_tokenId",
          "type": "uint256"
        }
      ],
      "name": "ownerOf",
      "outputs": [
        {
          "internalType": "address",
          "name": "",
          "type": "address"
        }
      ],
      "stateMutability": "view",
      "type": "function"
    },
    {
      "inputs": [
        {
          "internalType": "address",
          "name": "",
          "type": "address"
        }
      ],
      "name": "ownerTurkeyCount",
      "outputs": [
        {
          "internalType": "uint256",
          "name": "",
          "type": "uint256"
        }
      ],
      "stateMutability": "view",
      "type": "function"
    },
    {
      "inputs": [],
      "name": "renounceOwnership",
      "outputs": [],
      "stateMutability": "nonpayable",
      "type": "function"
    },
    {
      "inputs": [
        {
          "internalType": "address",
          "name": "_from",
          "type": "address"
        },
        {
          "internalType": "address",
          "name": "_to",
          "type": "address"
        },
        {
          "internalType": "uint256",
          "name": "_tokenId",
          "type": "uint256"
        }
      ],
      "name": "transferFrom",
      "outputs": [],
      "stateMutability": "payable",
      "type": "function"
    },
    {
      "inputs": [
        {
          "internalType": "address",
          "name": "newOwner",
          "type": "address"
        }
      ],
      "name": "transferOwnership",
      "outputs": [],
      "stateMutability": "nonpayable",
      "type": "function"
    },
    {
      "inputs": [
        {
          "internalType": "uint256",
          "name": "",
          "type": "uint256"
        }
      ],
      "name": "turkeyToOwner",
      "outputs": [
        {
          "internalType": "address",
          "name": "",
          "type": "address"
        }
      ],
      "stateMutability": "view",
      "type": "function"
    },
    {
      "inputs": [
        {
          "internalType": "uint256",
          "name": "",
          "type": "uint256"
        }
      ],
      "name": "turkeys",
      "outputs": [
        {
          "internalType": "uint256",
          "name": "id",
          "type": "uint256"
        },
        {
          "internalType": "string",
          "name": "name",
          "type": "string"
        },
        {
          "internalType": "uint256",
          "name": "dna",
          "type": "uint256"
        },
        {
          "internalType": "address",
          "name": "owner",
          "type": "address"
        }
      ],
      "stateMutability": "view",
      "type": "function"
    },
    {
      "inputs": [],
      "name": "turkeysLength",
      "outputs": [
        {
          "internalType": "uint256",
          "name": "",
          "type": "uint256"
        }
      ],
      "stateMutability": "view",
      "type": "function"
    },
    {
      "inputs": [],
      "name": "listingCreationPrice",
      "outputs": [
        {
          "internalType": "uint256",
          "name": "",
          "type": "uint256"
        }
      ],
      "stateMutability": "pure",
      "type": "function"
    },
    {
      "inputs": [],
      "name": "listingPurchaseFee",
      "outputs": [
        {
          "internalType": "uint256",
          "name": "",
          "type": "uint256"
        }
      ],
      "stateMutability": "pure",
      "type": "function"
    },
    {
      "inputs": [],
      "name": "activeListings",
      "outputs": [
        {
          "internalType": "uint256[]",
          "name": "",
          "type": "uint256[]"
        }
      ],
      "stateMutability": "view",
      "type": "function"
    },
    {
      "inputs": [
        {
          "internalType": "uint256",
          "name": "_listing",
          "type": "uint256"
        }
      ],
      "name": "getListing",
      "outputs": [
        {
          "components": [
            {
              "internalType": "address",
              "name": "contract_",
              "type": "address"
            },
            {
              "internalType": "uint256",
              "name": "token",
              "type": "uint256"
            },
            {
              "internalType": "address",
              "name": "seller",
              "type": "address"
            },
            {
              "internalType": "uint256",
              "name": "price",
              "type": "uint256"
            },
            {
              "internalType": "enum IMarket.Status",
              "name": "status",
              "type": "uint8"
            }
          ],
          "internalType": "struct IMarket.Listing",
          "name": "",
          "type": "tuple"
        }
      ],
      "stateMutability": "view",
      "type": "function"
    },
    {
      "inputs": [
        {
          "internalType": "address",
          "name": "_contract",
          "type": "address"
        },
        {
          "internalType": "uint256",
          "name": "_token",
          "type": "uint256"
        },
        {
          "internalType": "uint256",
          "name": "_price",
          "type": "uint256"
        }
      ],
      "name": "createListing",
      "outputs": [
        {
          "internalType": "uint256",
          "name": "listing",
          "type": "uint256"
        }
      ],
      "stateMutability": "payable",
      "type": "function"
    },
    {
      "inputs": [
        {
          "internalType": "uint256",
          "name": "_listing",
          "type": "uint256"
        }
      ],
      "name": "cancelListing",
      "outputs": [],
      "stateMutability": "nonpayable",
      "type": "function"
    },
    {
      "inputs": [
        {
          "internalType": "uint256",
          "name": "_token",
          "type": "uint256"
        }
      ],
      "name": "purchase",
      "outputs": [],
      "stateMutability": "payable",
      "type": "function"
    }
  ],
  "bytecode": "0x6080604052600a600055600054600a6200001a9190620002ac565b6001553480156200002a57600080fd5b506200004b6200003f6200005160201b60201c565b6200005960201b60201c565b620002fd565b600033905090565b6000600760009054906101000a900473ffffffffffffffffffffffffffffffffffffffff16905081600760006101000a81548173ffffffffffffffffffffffffffffffffffffffff021916908373ffffffffffffffffffffffffffffffffffffffff1602179055508173ffffffffffffffffffffffffffffffffffffffff168173ffffffffffffffffffffffffffffffffffffffff167f8be0079c531659141344cd1fd0a4f28419497f9722a3daafe3b4186f6b6457e060405160405180910390a35050565b7f4e487b7100000000000000000000000000000000000000000000000000000000600052601160045260246000fd5b60008160011c9050919050565b6000808291508390505b6001851115620001ad578086048111156200018557620001846200011f565b5b6001851615620001955780820291505b8081029050620001a5856200014e565b945062000165565b94509492505050565b600082620001c857600190506200029b565b81620001d857600090506200029b565b8160018114620001f15760028114620001fc5762000232565b60019150506200029b565b60ff8411156200021157620002106200011f565b5b8360020a9150848211156200022b576200022a6200011f565b5b506200029b565b5060208310610133831016604e8410600b84101617156200026c5782820a9050838111156200026657620002656200011f565b5b6200029b565b6200027b84848460016200015b565b925090508184048111156200029557620002946200011f565b5b81810290505b9392505050565b6000819050919050565b6000620002b982620002a2565b9150620002c683620002a2565b9250620002f57fffffffffffffffffffffffffffffffffffffffffffffffffffffffffffffffff8484620001b6565b905092915050565b6120b0806200030d6000396000f3fe60806040526004361061012a5760003560e01c8063856b9502116100ab578063d3a17f291161006f578063d3a17f29146103f2578063de74e57b1461041d578063e6e601401461045e578063ed3fb36b1461049b578063efef39a1146104c6578063f2fde38b146104e25761012a565b8063856b9502146103085780638da5cb5b1461033157806396eaef2e1461035c578063c71895071461039c578063c9ca94cd146103c75761012a565b80632e38d0b7116100f25780632e38d0b714610211578063305a67a81461024e5780636352211e1461027757806370a08231146102b4578063715018a6146102f15761012a565b8063095ea7b31461012f578063107a274a1461014b57806323b872dd1461018857806324780c56146101a45780632de11cf4146101d4575b600080fd5b6101496004803603810190610144919061168d565b61050b565b005b34801561015757600080fd5b50610172600480360381019061016d91906116cd565b6105bc565b60405161017f91906117f7565b60405180910390f35b6101a2600480360381019061019d9190611812565b6106f3565b005b6101be60048036038101906101b99190611865565b610703565b6040516101cb91906118c7565b60405180910390f35b3480156101e057600080fd5b506101fb60048036038101906101f691906116cd565b61089d565b60405161020891906118f1565b60405180910390f35b34801561021d57600080fd5b506102386004803603810190610233919061190c565b6108d0565b60405161024591906118c7565b60405180910390f35b34801561025a57600080fd5b50610275600480360381019061027091906116cd565b6108e8565b005b34801561028357600080fd5b5061029e600480360381019061029991906116cd565b610939565b6040516102ab91906118f1565b60405180910390f35b3480156102c057600080fd5b506102db60048036038101906102d6919061190c565b610976565b6040516102e891906118c7565b60405180910390f35b3480156102fd57600080fd5b506103066109bf565b005b34801561031457600080fd5b5061032f600480360381019061032a9190611a7f565b610a47565b005b34801561033d57600080fd5b50610346610a62565b60405161035391906118f1565b60405180910390f35b34801561036857600080fd5b50610383600480360381019061037e91906116cd565b610a8c565b6040516103939493929190611b50565b60405180910390f35b3480156103a857600080fd5b506103b1610b74565b6040516103be91906118c7565b60405180910390f35b3480156103d357600080fd5b506103dc610b7d565b6040516103e991906118c7565b60405180910390f35b3480156103fe57600080fd5b50610407610b8a565b6040516104149190611c4b565b60405180910390f35b34801561042957600080fd5b50610444600480360381019061043f91906116cd565b610c96565b604051610455959493929190611c7c565b60405180910390f35b34801561046a57600080fd5b50610485600480360381019061048091906116cd565b610d29565b60405161049291906118c7565b60405180910390f35b3480156104a757600080fd5b506104b0610d41565b6040516104bd91906118c7565b60405180910390f35b6104e060048036038101906104db91906116cd565b610d4a565b005b3480156104ee57600080fd5b506105096004803603810190610504919061190c565b610ee6565b005b816006600083815260200190815260200160002060006101000a81548173ffffffffffffffffffffffffffffffffffffffff021916908373ffffffffffffffffffffffffffffffffffffffff160217905550808273ffffffffffffffffffffffffffffffffffffffff163373ffffffffffffffffffffffffffffffffffffffff167f8c5be1e5ebec7d5bd14f71427d1e84f3dd0314c0f7b2291e5b200ac8c7c3b92560405160405180910390a45050565b6105c46114d5565b600882815481106105d8576105d7611ccf565b5b90600052602060002090600502016040518060a00160405290816000820160009054906101000a900473ffffffffffffffffffffffffffffffffffffffff1673ffffffffffffffffffffffffffffffffffffffff1673ffffffffffffffffffffffffffffffffffffffff168152602001600182015481526020016002820160009054906101000a900473ffffffffffffffffffffffffffffffffffffffff1673ffffffffffffffffffffffffffffffffffffffff1673ffffffffffffffffffffffffffffffffffffffff168152602001600382015481526020016004820160009054906101000a900460ff1660028111156106d6576106d5611718565b5b60028111156106e8576106e7611718565b5b815250509050919050565b6106fe838383610fde565b505050565b600060086040518060a001604052808673ffffffffffffffffffffffffffffffffffffffff1681526020018581526020013373ffffffffffffffffffffffffffffffffffffffff1681526020018481526020016001600281111561076a57610769611718565b5b815250908060018154018082558091505060019003906000526020600020906005020160009091909190915060008201518160000160006101000a81548173ffffffffffffffffffffffffffffffffffffffff021916908373ffffffffffffffffffffffffffffffffffffffff1602179055506020820151816001015560408201518160020160006101000a81548173ffffffffffffffffffffffffffffffffffffffff021916908373ffffffffffffffffffffffffffffffffffffffff1602179055506060820151816003015560808201518160040160006101000a81548160ff0219169083600281111561086357610862611718565b5b02179055505050600160088054905061087c9190611d2d565b90508060096000858152602001908152602001600020819055509392505050565b60036020528060005260406000206000915054906101000a900473ffffffffffffffffffffffffffffffffffffffff1681565b60046020528060005260406000206000915090505481565b6000600882815481106108fe576108fd611ccf565b5b906000526020600020906005020160040160006101000a81548160ff0219169083600281111561093157610930611718565b5b021790555050565b60006003600083815260200190815260200160002060009054906101000a900473ffffffffffffffffffffffffffffffffffffffff169050919050565b6000600460008373ffffffffffffffffffffffffffffffffffffffff1673ffffffffffffffffffffffffffffffffffffffff168152602001908152602001600020549050919050565b6109c761119e565b73ffffffffffffffffffffffffffffffffffffffff166109e5610a62565b73ffffffffffffffffffffffffffffffffffffffff1614610a3b576040517f08c379a0000000000000000000000000000000000000000000000000000000008152600401610a3290611dad565b60405180910390fd5b610a4560006111a6565b565b6000610a528261126c565b9050610a5e82826112b1565b5050565b6000600760009054906101000a900473ffffffffffffffffffffffffffffffffffffffff16905090565b60058181548110610a9c57600080fd5b9060005260206000209060040201600091509050806000015490806001018054610ac590611dfc565b80601f0160208091040260200160405190810160405280929190818152602001828054610af190611dfc565b8015610b3e5780601f10610b1357610100808354040283529160200191610b3e565b820191906000526020600020905b815481529060010190602001808311610b2157829003601f168201915b5050505050908060020154908060030160009054906101000a900473ffffffffffffffffffffffffffffffffffffffff16905084565b60006002905090565b6000600580549050905090565b6060600060088054905067ffffffffffffffff811115610bad57610bac611954565b5b604051908082528060200260200182016040528015610bdb5781602001602082028036833780820191505090505b50905060005b6008805490508111610c8e5760016002811115610c0157610c00611718565b5b60088281548110610c1557610c14611ccf565b5b906000526020600020906005020160040160009054906101000a900460ff166002811115610c4657610c45611718565b5b1415610c7b5780828281518110610c6057610c5f611ccf565b5b6020026020010181815250508080610c7790611e2e565b9150505b8080610c8690611e2e565b915050610be1565b508091505090565b60088181548110610ca657600080fd5b90600052602060002090600502016000915090508060000160009054906101000a900473ffffffffffffffffffffffffffffffffffffffff16908060010154908060020160009054906101000a900473ffffffffffffffffffffffffffffffffffffffff16908060030154908060040160009054906101000a900460ff16905085565b60096020528060005260406000206000915090505481565b60006005905090565b600060096000838152602001908152602001600020549050610dd760088281548110610d7957610d78611ccf565b5b906000526020600020906005020160020160009054906101000a900473ffffffffffffffffffffffffffffffffffffffff163360088481548110610dc057610dbf611ccf565b5b9060005260206000209060050201600101546106f3565b600260088281548110610ded57610dec611ccf565b5b906000526020600020906005020160040160006101000a81548160ff02191690836002811115610e2057610e1f611718565b5b02179055503460088281548110610e3a57610e39611ccf565b5b90600052602060002090600502016003015414610e5657600080fd5b60088181548110610e6a57610e69611ccf565b5b906000526020600020906005020160020160009054906101000a900473ffffffffffffffffffffffffffffffffffffffff1673ffffffffffffffffffffffffffffffffffffffff166108fc349081150290604051600060405180830381858888f19350505050158015610ee1573d6000803e3d6000fd5b505050565b610eee61119e565b73ffffffffffffffffffffffffffffffffffffffff16610f0c610a62565b73ffffffffffffffffffffffffffffffffffffffff1614610f62576040517f08c379a0000000000000000000000000000000000000000000000000000000008152600401610f5990611dad565b60405180910390fd5b600073ffffffffffffffffffffffffffffffffffffffff168173ffffffffffffffffffffffffffffffffffffffff161415610fd2576040517f08c379a0000000000000000000000000000000000000000000000000000000008152600401610fc990611ee9565b60405180910390fd5b610fdb816111a6565b50565b600460008373ffffffffffffffffffffffffffffffffffffffff1673ffffffffffffffffffffffffffffffffffffffff168152602001908152602001600020600081548092919061102e90611e2e565b9190505550600460008473ffffffffffffffffffffffffffffffffffffffff1673ffffffffffffffffffffffffffffffffffffffff168152602001908152602001600020600081548092919061108390611f09565b9190505550816003600083815260200190815260200160002060006101000a81548173ffffffffffffffffffffffffffffffffffffffff021916908373ffffffffffffffffffffffffffffffffffffffff16021790555033600582815481106110ef576110ee611ccf565b5b906000526020600020906004020160030160006101000a81548173ffffffffffffffffffffffffffffffffffffffff021916908373ffffffffffffffffffffffffffffffffffffffff160217905550808273ffffffffffffffffffffffffffffffffffffffff168473ffffffffffffffffffffffffffffffffffffffff167fddf252ad1be2c89b69c2b068fc378daa952ba7f163c4a11628f55a4df523b3ef60405160405180910390a4505050565b600033905090565b6000600760009054906101000a900473ffffffffffffffffffffffffffffffffffffffff16905081600760006101000a81548173ffffffffffffffffffffffffffffffffffffffff021916908373ffffffffffffffffffffffffffffffffffffffff1602179055508173ffffffffffffffffffffffffffffffffffffffff168173ffffffffffffffffffffffffffffffffffffffff167f8be0079c531659141344cd1fd0a4f28419497f9722a3daafe3b4186f6b6457e060405160405180910390a35050565b600080826040516020016112809190611f6f565b6040516020818303038152906040528051906020012060001c9050600154816112a99190611fb5565b915050919050565b60006005805490509050600560405180608001604052808381526020018581526020018481526020013373ffffffffffffffffffffffffffffffffffffffff168152509080600181540180825580915050600190039060005260206000209060040201600090919091909150600082015181600001556020820151816001019080519060200190611343929190611542565b506040820151816002015560608201518160030160006101000a81548173ffffffffffffffffffffffffffffffffffffffff021916908373ffffffffffffffffffffffffffffffffffffffff1602179055505050336003600083815260200190815260200160002060006101000a81548173ffffffffffffffffffffffffffffffffffffffff021916908373ffffffffffffffffffffffffffffffffffffffff16021790555061143c6001600460003373ffffffffffffffffffffffffffffffffffffffff1673ffffffffffffffffffffffffffffffffffffffff168152602001908152602001600020546114bf90919063ffffffff16565b600460003373ffffffffffffffffffffffffffffffffffffffff1673ffffffffffffffffffffffffffffffffffffffff168152602001908152602001600020819055507f1b2ffdaa6c1215beb6a2eb83d53cb6f1d858bbc387927ba7c57aa390a2b065e98184846040516114b293929190611fe6565b60405180910390a1505050565b600081836114cd9190612024565b905092915050565b6040518060a00160405280600073ffffffffffffffffffffffffffffffffffffffff16815260200160008152602001600073ffffffffffffffffffffffffffffffffffffffff168152602001600081526020016000600281111561153c5761153b611718565b5b81525090565b82805461154e90611dfc565b90600052602060002090601f01602090048101928261157057600085556115b7565b82601f1061158957805160ff19168380011785556115b7565b828001600101855582156115b7579182015b828111156115b657825182559160200191906001019061159b565b5b5090506115c491906115c8565b5090565b5b808211156115e15760008160009055506001016115c9565b5090565b6000604051905090565b600080fd5b600080fd5b600073ffffffffffffffffffffffffffffffffffffffff82169050919050565b6000611624826115f9565b9050919050565b61163481611619565b811461163f57600080fd5b50565b6000813590506116518161162b565b92915050565b6000819050919050565b61166a81611657565b811461167557600080fd5b50565b60008135905061168781611661565b92915050565b600080604083850312156116a4576116a36115ef565b5b60006116b285828601611642565b92505060206116c385828601611678565b9150509250929050565b6000602082840312156116e3576116e26115ef565b5b60006116f184828501611678565b91505092915050565b61170381611619565b82525050565b61171281611657565b82525050565b7f4e487b7100000000000000000000000000000000000000000000000000000000600052602160045260246000fd5b6003811061175857611757611718565b5b50565b600081905061176982611747565b919050565b60006117798261175b565b9050919050565b6117898161176e565b82525050565b60a0820160008201516117a560008501826116fa565b5060208201516117b86020850182611709565b5060408201516117cb60408501826116fa565b5060608201516117de6060850182611709565b5060808201516117f16080850182611780565b50505050565b600060a08201905061180c600083018461178f565b92915050565b60008060006060848603121561182b5761182a6115ef565b5b600061183986828701611642565b935050602061184a86828701611642565b925050604061185b86828701611678565b9150509250925092565b60008060006060848603121561187e5761187d6115ef565b5b600061188c86828701611642565b935050602061189d86828701611678565b92505060406118ae86828701611678565b9150509250925092565b6118c181611657565b82525050565b60006020820190506118dc60008301846118b8565b92915050565b6118eb81611619565b82525050565b600060208201905061190660008301846118e2565b92915050565b600060208284031215611922576119216115ef565b5b600061193084828501611642565b91505092915050565b600080fd5b600080fd5b6000601f19601f8301169050919050565b7f4e487b7100000000000000000000000000000000000000000000000000000000600052604160045260246000fd5b61198c82611943565b810181811067ffffffffffffffff821117156119ab576119aa611954565b5b80604052505050565b60006119be6115e5565b90506119ca8282611983565b919050565b600067ffffffffffffffff8211156119ea576119e9611954565b5b6119f382611943565b9050602081019050919050565b82818337600083830152505050565b6000611a22611a1d846119cf565b6119b4565b905082815260208101848484011115611a3e57611a3d61193e565b5b611a49848285611a00565b509392505050565b600082601f830112611a6657611a65611939565b5b8135611a76848260208601611a0f565b91505092915050565b600060208284031215611a9557611a946115ef565b5b600082013567ffffffffffffffff811115611ab357611ab26115f4565b5b611abf84828501611a51565b91505092915050565b600081519050919050565b600082825260208201905092915050565b60005b83811015611b02578082015181840152602081019050611ae7565b83811115611b11576000848401525b50505050565b6000611b2282611ac8565b611b2c8185611ad3565b9350611b3c818560208601611ae4565b611b4581611943565b840191505092915050565b6000608082019050611b6560008301876118b8565b8181036020830152611b778186611b17565b9050611b8660408301856118b8565b611b9360608301846118e2565b95945050505050565b600081519050919050565b600082825260208201905092915050565b6000819050602082019050919050565b6000611bd48383611709565b60208301905092915050565b6000602082019050919050565b6000611bf882611b9c565b611c028185611ba7565b9350611c0d83611bb8565b8060005b83811015611c3e578151611c258882611bc8565b9750611c3083611be0565b925050600181019050611c11565b5085935050505092915050565b60006020820190508181036000830152611c658184611bed565b905092915050565b611c768161176e565b82525050565b600060a082019050611c9160008301886118e2565b611c9e60208301876118b8565b611cab60408301866118e2565b611cb860608301856118b8565b611cc56080830184611c6d565b9695505050505050565b7f4e487b7100000000000000000000000000000000000000000000000000000000600052603260045260246000fd5b7f4e487b7100000000000000000000000000000000000000000000000000000000600052601160045260246000fd5b6000611d3882611657565b9150611d4383611657565b925082821015611d5657611d55611cfe565b5b828203905092915050565b7f4f776e61626c653a2063616c6c6572206973206e6f7420746865206f776e6572600082015250565b6000611d97602083611ad3565b9150611da282611d61565b602082019050919050565b60006020820190508181036000830152611dc681611d8a565b9050919050565b7f4e487b7100000000000000000000000000000000000000000000000000000000600052602260045260246000fd5b60006002820490506001821680611e1457607f821691505b60208210811415611e2857611e27611dcd565b5b50919050565b6000611e3982611657565b91507fffffffffffffffffffffffffffffffffffffffffffffffffffffffffffffffff821415611e6c57611e6b611cfe565b5b600182019050919050565b7f4f776e61626c653a206e6577206f776e657220697320746865207a65726f206160008201527f6464726573730000000000000000000000000000000000000000000000000000602082015250565b6000611ed3602683611ad3565b9150611ede82611e77565b604082019050919050565b60006020820190508181036000830152611f0281611ec6565b9050919050565b6000611f1482611657565b91506000821415611f2857611f27611cfe565b5b600182039050919050565b600081905092915050565b6000611f4982611ac8565b611f538185611f33565b9350611f63818560208601611ae4565b80840191505092915050565b6000611f7b8284611f3e565b915081905092915050565b7f4e487b7100000000000000000000000000000000000000000000000000000000600052601260045260246000fd5b6000611fc082611657565b9150611fcb83611657565b925082611fdb57611fda611f86565b5b828206905092915050565b6000606082019050611ffb60008301866118b8565b818103602083015261200d8185611b17565b905061201c60408301846118b8565b949350505050565b600061202f82611657565b915061203a83611657565b9250827fffffffffffffffffffffffffffffffffffffffffffffffffffffffffffffffff0382111561206f5761206e611cfe565b5b82820190509291505056fea264697066735822122011dfe502398b785a3d8a10d9f06463009c1bfd0fd704ad7fcda96276b54aa91764736f6c63430008090033",
  "immutableReferences": {},
  "source": "//SPDX-License-Identifier: UNLICENSED\npragma solidity ^0.8.7;\nimport \"./IMarket.sol\";\nimport \"./TurkeyFactory.sol\";\nimport \"./Ownable.sol\";\n\n//import \"./MyToken.sol\";\n//import \"@openzeppelin/contracts/token/ERC721/ERC721.sol\";\n\n\n\n\ncontract Marketplace is IMarket, TurkeyFactory, Ownable{\n    \n    Listing[] public listings; \n    mapping(uint => uint) public idToListing;\n    \n    constructor(){\n        \n    }\n    \n    /// @dev The price of creating a new listing.\n    function listingCreationPrice() external override pure returns(uint){\n          return 2;\n    }\n\n    /// @dev Percentage of the purchasing price that is retained by the Market operator.\n    function listingPurchaseFee() external override pure returns(uint){\n          return 5;\n    }\n\n    /// @dev Get all active listings.\n    function activeListings() external override view returns(uint[] memory){\n    uint256[] memory _activeListings = new uint256[](listings.length);\n        for(uint i=0; i <= listings.length; i++){\n            if(listings[i].status == Status.Active){\n                _activeListings[i] = i;\n                i++;\n            }\n        }\n        return _activeListings;\n    }\n\n    /// @dev Get the details of a listing.\n    function getListing(uint _listing) external override view returns(Listing memory){\n        return listings[_listing];\n    }\n    \n    /// @dev Create a new listing.\n    function createListing(address _contract, uint _token, uint _price) external override payable returns(uint listing){\n        listings.push(Listing(_contract, _token, msg.sender, _price, Status.Active));\n        listing = listings.length-1;\n        idToListing[_token] = listing;\n        return listing;\n    }\n\n    /// @dev Cancel an active listing.\n    function cancelListing(uint _listing) external override{\n        listings[_listing].status = Status.Canceled;\n    }\n\n    /// @dev Purchase an active listing.\n    function purchase(uint _token) external override payable{\n        uint _listing = idToListing[_token];\n        transferFrom(listings[_listing].seller, msg.sender, listings[_listing].token);\n        listings[_listing].status = Status.Sold;\n        require(listings[_listing].price == msg.value);\n        payable(listings[_listing].seller).transfer(msg.value);\n    }\n\n}\n",
  "sourcePath": "/Users/adifalcusan/Desktop/Synapsics-internship/marketplace/contracts/Marketplace.sol",
  "compiler": {
    "name": "solc",
    "version": "0.8.9+commit.e5eed63a.Emscripten.clang"
  },
  "schemaVersion": "3.4.3",
  "updatedAt": "2021-10-05T12:15:21.497Z",
  "devdoc": {
    "kind": "dev",
    "methods": {
      "activeListings()": {
        "details": "Get all active listings."
      },
      "cancelListing(uint256)": {
        "details": "Cancel an active listing."
      },
      "createListing(address,uint256,uint256)": {
        "details": "Create a new listing."
      },
      "getListing(uint256)": {
        "details": "Get the details of a listing."
      },
      "listingCreationPrice()": {
        "details": "The price of creating a new listing."
      },
      "listingPurchaseFee()": {
        "details": "Percentage of the purchasing price that is retained by the Market operator."
      },
      "owner()": {
        "details": "Returns the address of the current owner."
      },
      "purchase(uint256)": {
        "details": "Purchase an active listing."
      },
      "renounceOwnership()": {
        "details": "Leaves the contract without owner. It will not be possible to call `onlyOwner` functions anymore. Can only be called by the current owner. NOTE: Renouncing ownership will leave the contract without an owner, thereby removing any functionality that is only available to the owner."
      },
      "transferOwnership(address)": {
        "details": "Transfers ownership of the contract to a new account (`newOwner`). Can only be called by the current owner."
      }
    },
    "version": 1
  },
  "userdoc": {
    "kind": "user",
    "methods": {},
    "version": 1
  }
}