{
  "contractName": "TurkeyFactory",
  "abi": [
    {
      "inputs": [],
      "stateMutability": "nonpayable",
      "type": "constructor"
    },
    {
      "anonymous": false,
      "inputs": [
        {
          "indexed": true,
          "internalType": "address",
          "name": "_owner",
          "type": "address"
        },
        {
          "indexed": true,
          "internalType": "address",
          "name": "_approved",
          "type": "address"
        },
        {
          "indexed": true,
          "internalType": "uint256",
          "name": "_tokenId",
          "type": "uint256"
        }
      ],
      "name": "Approval",
      "type": "event"
    },
    {
      "anonymous": false,
      "inputs": [
        {
          "indexed": false,
          "internalType": "uint256",
          "name": "id",
          "type": "uint256"
        },
        {
          "indexed": false,
          "internalType": "string",
          "name": "_name",
          "type": "string"
        },
        {
          "indexed": false,
          "internalType": "uint256",
          "name": "_dna",
          "type": "uint256"
        }
      ],
      "name": "NewTurkey",
      "type": "event"
    },
    {
      "anonymous": false,
      "inputs": [
        {
          "indexed": true,
          "internalType": "address",
          "name": "_from",
          "type": "address"
        },
        {
          "indexed": true,
          "internalType": "address",
          "name": "_to",
          "type": "address"
        },
        {
          "indexed": true,
          "internalType": "uint256",
          "name": "_tokenId",
          "type": "uint256"
        }
      ],
      "name": "Transfer",
      "type": "event"
    },
    {
      "inputs": [
        {
          "internalType": "address",
          "name": "",
          "type": "address"
        }
      ],
      "name": "ownerTurkeyCount",
      "outputs": [
        {
          "internalType": "uint256",
          "name": "",
          "type": "uint256"
        }
      ],
      "stateMutability": "view",
      "type": "function"
    },
    {
      "inputs": [
        {
          "internalType": "uint256",
          "name": "",
          "type": "uint256"
        }
      ],
      "name": "turkeyToOwner",
      "outputs": [
        {
          "internalType": "address",
          "name": "",
          "type": "address"
        }
      ],
      "stateMutability": "view",
      "type": "function"
    },
    {
      "inputs": [
        {
          "internalType": "uint256",
          "name": "",
          "type": "uint256"
        }
      ],
      "name": "turkeys",
      "outputs": [
        {
          "internalType": "string",
          "name": "name",
          "type": "string"
        },
        {
          "internalType": "uint256",
          "name": "dna",
          "type": "uint256"
        }
      ],
      "stateMutability": "view",
      "type": "function"
    },
    {
      "inputs": [
        {
          "internalType": "string",
          "name": "_name",
          "type": "string"
        }
      ],
      "name": "generateRandomTurkey",
      "outputs": [],
      "stateMutability": "nonpayable",
      "type": "function"
    },
    {
      "inputs": [
        {
          "internalType": "address",
          "name": "_owner",
          "type": "address"
        }
      ],
      "name": "balanceOf",
      "outputs": [
        {
          "internalType": "uint256",
          "name": "",
          "type": "uint256"
        }
      ],
      "stateMutability": "view",
      "type": "function"
    },
    {
      "inputs": [
        {
          "internalType": "uint256",
          "name": "_tokenId",
          "type": "uint256"
        }
      ],
      "name": "ownerOf",
      "outputs": [
        {
          "internalType": "address",
          "name": "",
          "type": "address"
        }
      ],
      "stateMutability": "view",
      "type": "function"
    },
    {
      "inputs": [
        {
          "internalType": "address",
          "name": "_from",
          "type": "address"
        },
        {
          "internalType": "address",
          "name": "_to",
          "type": "address"
        },
        {
          "internalType": "uint256",
          "name": "_tokenId",
          "type": "uint256"
        }
      ],
      "name": "transferFrom",
      "outputs": [],
      "stateMutability": "payable",
      "type": "function"
    },
    {
      "inputs": [
        {
          "internalType": "address",
          "name": "_approved",
          "type": "address"
        },
        {
          "internalType": "uint256",
          "name": "_tokenId",
          "type": "uint256"
        }
      ],
      "name": "approve",
      "outputs": [],
      "stateMutability": "payable",
      "type": "function"
    }
  ],
  "bytecode": "0x6080604052600a600055600054600a6200001a91906200008c565b6001553480156200002a57600080fd5b506200020f565b6000808291508390505b600185111562000083578086048111156200005b576200005a620001d3565b5b60018516156200006b5780820291505b80810290506200007b8562000202565b94506200003b565b94509492505050565b60006200009982620001c9565b9150620000a683620001c9565b9250620000d57fffffffffffffffffffffffffffffffffffffffffffffffffffffffffffffffff8484620000dd565b905092915050565b600082620000ef5760019050620001c2565b81620000ff5760009050620001c2565b8160018114620001185760028114620001235762000159565b6001915050620001c2565b60ff841115620001385762000137620001d3565b5b8360020a915084821115620001525762000151620001d3565b5b50620001c2565b5060208310610133831016604e8410600b8410161715620001935782820a9050838111156200018d576200018c620001d3565b5b620001c2565b620001a2848484600162000031565b92509050818404811115620001bc57620001bb620001d3565b5b81810290505b9392505050565b6000819050919050565b7f4e487b7100000000000000000000000000000000000000000000000000000000600052601160045260246000fd5b60008160011c9050919050565b610f61806200021f6000396000f3fe60806040526004361061007b5760003560e01c80636352211e1161004e5780636352211e1461013257806370a082311461016f578063856b9502146101ac57806396eaef2e146101d55761007b565b8063095ea7b31461008057806323b872dd1461009c5780632de11cf4146100b85780632e38d0b7146100f5575b600080fd5b61009a60048036038101906100959190610997565b610213565b005b6100b660048036038101906100b19190610944565b6102c4565b005b3480156100c457600080fd5b506100df60048036038101906100da9190610a20565b6102d4565b6040516100ec9190610aec565b60405180910390f35b34801561010157600080fd5b5061011c60048036038101906101179190610917565b610307565b6040516101299190610b37565b60405180910390f35b34801561013e57600080fd5b5061015960048036038101906101549190610a20565b61031f565b6040516101669190610aec565b60405180910390f35b34801561017b57600080fd5b5061019660048036038101906101919190610917565b61035c565b6040516101a39190610b37565b60405180910390f35b3480156101b857600080fd5b506101d360048036038101906101ce91906109d7565b6103a5565b005b3480156101e157600080fd5b506101fc60048036038101906101f79190610a20565b6103c0565b60405161020a929190610b07565b60405180910390f35b816005600083815260200190815260200160002060006101000a81548173ffffffffffffffffffffffffffffffffffffffff021916908373ffffffffffffffffffffffffffffffffffffffff160217905550808273ffffffffffffffffffffffffffffffffffffffff163373ffffffffffffffffffffffffffffffffffffffff167f8c5be1e5ebec7d5bd14f71427d1e84f3dd0314c0f7b2291e5b200ac8c7c3b92560405160405180910390a45050565b6102cf83838361047c565b505050565b60026020528060005260406000206000915054906101000a900473ffffffffffffffffffffffffffffffffffffffff1681565b60036020528060005260406000206000915090505481565b60006002600083815260200190815260200160002060009054906101000a900473ffffffffffffffffffffffffffffffffffffffff169050919050565b6000600360008373ffffffffffffffffffffffffffffffffffffffff1673ffffffffffffffffffffffffffffffffffffffff168152602001908152602001600020549050919050565b60006103b0826105d8565b90506103bc828261061d565b5050565b600481815481106103d057600080fd5b90600052602060002090600202016000915090508060000180546103f390610d3f565b80601f016020809104026020016040519081016040528092919081815260200182805461041f90610d3f565b801561046c5780601f106104415761010080835404028352916020019161046c565b820191906000526020600020905b81548152906001019060200180831161044f57829003601f168201915b5050505050908060010154905082565b600360008373ffffffffffffffffffffffffffffffffffffffff1673ffffffffffffffffffffffffffffffffffffffff16815260200190815260200160002060008154809291906104cc90610da2565b9190505550600360008473ffffffffffffffffffffffffffffffffffffffff1673ffffffffffffffffffffffffffffffffffffffff168152602001908152602001600020600081548092919061052190610d15565b9190505550816002600083815260200190815260200160002060006101000a81548173ffffffffffffffffffffffffffffffffffffffff021916908373ffffffffffffffffffffffffffffffffffffffff160217905550808273ffffffffffffffffffffffffffffffffffffffff168473ffffffffffffffffffffffffffffffffffffffff167fddf252ad1be2c89b69c2b068fc378daa952ba7f163c4a11628f55a4df523b3ef60405160405180910390a4505050565b600080826040516020016105ec9190610ad5565b6040516020818303038152906040528051906020012060001c9050600154816106159190610deb565b915050919050565b6004604051806040016040528084815260200183815250908060018154018082558091505060019003906000526020600020906002020160009091909190915060008201518160000190805190602001906106799291906107da565b506020820151816001015550506000600160048054905061069a9190610c63565b9050336002600083815260200190815260200160002060006101000a81548173ffffffffffffffffffffffffffffffffffffffff021916908373ffffffffffffffffffffffffffffffffffffffff1602179055506107416001600360003373ffffffffffffffffffffffffffffffffffffffff1673ffffffffffffffffffffffffffffffffffffffff168152602001908152602001600020546107c490919063ffffffff16565b600360003373ffffffffffffffffffffffffffffffffffffffff1673ffffffffffffffffffffffffffffffffffffffff168152602001908152602001600020819055507f1b2ffdaa6c1215beb6a2eb83d53cb6f1d858bbc387927ba7c57aa390a2b065e98184846040516107b793929190610b52565b60405180910390a1505050565b600081836107d29190610c0d565b905092915050565b8280546107e690610d3f565b90600052602060002090601f016020900481019282610808576000855561084f565b82601f1061082157805160ff191683800117855561084f565b8280016001018555821561084f579182015b8281111561084e578251825591602001919060010190610833565b5b50905061085c9190610860565b5090565b5b80821115610879576000816000905550600101610861565b5090565b600061089061088b84610bb5565b610b90565b9050828152602081018484840111156108ac576108ab610edd565b5b6108b7848285610cd3565b509392505050565b6000813590506108ce81610efd565b92915050565b600082601f8301126108e9576108e8610ed8565b5b81356108f984826020860161087d565b91505092915050565b60008135905061091181610f14565b92915050565b60006020828403121561092d5761092c610ee7565b5b600061093b848285016108bf565b91505092915050565b60008060006060848603121561095d5761095c610ee7565b5b600061096b868287016108bf565b935050602061097c868287016108bf565b925050604061098d86828701610902565b9150509250925092565b600080604083850312156109ae576109ad610ee7565b5b60006109bc858286016108bf565b92505060206109cd85828601610902565b9150509250929050565b6000602082840312156109ed576109ec610ee7565b5b600082013567ffffffffffffffff811115610a0b57610a0a610ee2565b5b610a17848285016108d4565b91505092915050565b600060208284031215610a3657610a35610ee7565b5b6000610a4484828501610902565b91505092915050565b610a5681610c97565b82525050565b6000610a6782610be6565b610a718185610bf1565b9350610a81818560208601610ce2565b610a8a81610eec565b840191505092915050565b6000610aa082610be6565b610aaa8185610c02565b9350610aba818560208601610ce2565b80840191505092915050565b610acf81610cc9565b82525050565b6000610ae18284610a95565b915081905092915050565b6000602082019050610b016000830184610a4d565b92915050565b60006040820190508181036000830152610b218185610a5c565b9050610b306020830184610ac6565b9392505050565b6000602082019050610b4c6000830184610ac6565b92915050565b6000606082019050610b676000830186610ac6565b8181036020830152610b798185610a5c565b9050610b886040830184610ac6565b949350505050565b6000610b9a610bab565b9050610ba68282610d71565b919050565b6000604051905090565b600067ffffffffffffffff821115610bd057610bcf610ea9565b5b610bd982610eec565b9050602081019050919050565b600081519050919050565b600082825260208201905092915050565b600081905092915050565b6000610c1882610cc9565b9150610c2383610cc9565b9250827fffffffffffffffffffffffffffffffffffffffffffffffffffffffffffffffff03821115610c5857610c57610e1c565b5b828201905092915050565b6000610c6e82610cc9565b9150610c7983610cc9565b925082821015610c8c57610c8b610e1c565b5b828203905092915050565b6000610ca282610ca9565b9050919050565b600073ffffffffffffffffffffffffffffffffffffffff82169050919050565b6000819050919050565b82818337600083830152505050565b60005b83811015610d00578082015181840152602081019050610ce5565b83811115610d0f576000848401525b50505050565b6000610d2082610cc9565b91506000821415610d3457610d33610e1c565b5b600182039050919050565b60006002820490506001821680610d5757607f821691505b60208210811415610d6b57610d6a610e7a565b5b50919050565b610d7a82610eec565b810181811067ffffffffffffffff82111715610d9957610d98610ea9565b5b80604052505050565b6000610dad82610cc9565b91507fffffffffffffffffffffffffffffffffffffffffffffffffffffffffffffffff821415610de057610ddf610e1c565b5b600182019050919050565b6000610df682610cc9565b9150610e0183610cc9565b925082610e1157610e10610e4b565b5b828206905092915050565b7f4e487b7100000000000000000000000000000000000000000000000000000000600052601160045260246000fd5b7f4e487b7100000000000000000000000000000000000000000000000000000000600052601260045260246000fd5b7f4e487b7100000000000000000000000000000000000000000000000000000000600052602260045260246000fd5b7f4e487b7100000000000000000000000000000000000000000000000000000000600052604160045260246000fd5b600080fd5b600080fd5b600080fd5b600080fd5b6000601f19601f8301169050919050565b610f0681610c97565b8114610f1157600080fd5b50565b610f1d81610cc9565b8114610f2857600080fd5b5056fea26469706673582212202834fb0545a49baa2ad493fe8054cb6bcf7a20b2f12c8663b81311c0ec2a9bf464736f6c63430008070033",
  "immutableReferences": {},
  "source": "//SPDX-License-Identifier: UNLICENSED\npragma solidity ^0.8.7;\nimport \"@openzeppelin/contracts/utils/math/SafeMath.sol\";\n//import \"@openzeppelin/contracts/token/ERC721/ERC721.sol\";\nimport \"./ERC721.sol\";\n\n\n\ncontract TurkeyFactory is ERC721{\n\n    using SafeMath for uint256;\n    constructor() ERC721() {}\n\n    uint dnaDigits = 10;\n    uint dnaModulus = 10 ** dnaDigits;\n\n    mapping (uint => address) public turkeyToOwner;\n    mapping (address => uint) public ownerTurkeyCount;\n\n    struct Turkey{\n        string name;\n        uint dna;\n    }\n    Turkey[] public turkeys;\n\n    event NewTurkey(uint id, string _name, uint _dna);\n\n    function createTurkey(string memory _name, uint _dna) private {\n        turkeys.push(Turkey(_name, _dna));\n        uint id = turkeys.length - 1;\n        turkeyToOwner[id] = msg.sender;\n        ownerTurkeyCount[msg.sender] = ownerTurkeyCount[msg.sender].add(1);\n        emit NewTurkey(id, _name, _dna);\n        \n    }\n\n    function generateRandomDna(string memory _str) private view returns (uint) {\n        uint rand = uint(keccak256(abi.encodePacked(_str)));\n        return rand % dnaModulus;\n    }\n    \n    function getTurkeyDna(uint _turkeyId) private view returns(uint){\n        return turkeys[_turkeyId].dna;\n    }\n\n    function generateRandomTurkey(string memory _name) public {\n        uint randDna = generateRandomDna(_name);\n        createTurkey(_name, randDna);\n    }\n/////////////////////////////////////////////////////////////////////////////////\n    mapping (uint => address) turkeyApprovals;\n\n    function balanceOf(address _owner) external view override returns (uint256) {\n        return ownerTurkeyCount[_owner];\n    }\n\n    function ownerOf(uint256 _tokenId) external view override returns (address) {\n        return turkeyToOwner[_tokenId];\n    }\n\n    function _transfer(address _from, address _to, uint256 _tokenId) private {\n        ownerTurkeyCount[_to]++;\n        ownerTurkeyCount[_from]--;\n        turkeyToOwner[_tokenId] = _to;\n        emit Transfer(_from, _to, _tokenId);\n    }\n\n    function transferFrom(address _from, address _to, uint256 _tokenId) public override payable {\n        _transfer(_from, _to, _tokenId);\n    }\n\n    function approve(address _approved, uint256 _tokenId) external override payable {\n        turkeyApprovals[_tokenId] = _approved;\n        emit Approval(msg.sender, _approved, _tokenId);\n    }\n  \n    \n\n}\n",
  "sourcePath": "/Users/adifalcusan/Desktop/Synapsics-internship/marketplace/contracts/TurkeyFactory.sol",
  "compiler": {
    "name": "solc",
    "version": "0.8.7+commit.e28d00a7.Emscripten.clang"
  },
  "schemaVersion": "3.4.3",
  "updatedAt": "2021-09-27T14:18:14.216Z",
  "devdoc": {
    "kind": "dev",
    "methods": {},
    "version": 1
  },
  "userdoc": {
    "kind": "user",
    "methods": {},
    "version": 1
  }
}