{
  "contractName": "TurkeyFactory",
  "abi": [
    {
      "inputs": [],
      "stateMutability": "nonpayable",
      "type": "constructor"
    },
    {
      "anonymous": false,
      "inputs": [
        {
          "indexed": true,
          "internalType": "address",
          "name": "_owner",
          "type": "address"
        },
        {
          "indexed": true,
          "internalType": "address",
          "name": "_approved",
          "type": "address"
        },
        {
          "indexed": true,
          "internalType": "uint256",
          "name": "_tokenId",
          "type": "uint256"
        }
      ],
      "name": "Approval",
      "type": "event"
    },
    {
      "anonymous": false,
      "inputs": [
        {
          "indexed": false,
          "internalType": "uint256",
          "name": "id",
          "type": "uint256"
        },
        {
          "indexed": false,
          "internalType": "string",
          "name": "_name",
          "type": "string"
        },
        {
          "indexed": false,
          "internalType": "uint256",
          "name": "_dna",
          "type": "uint256"
        }
      ],
      "name": "NewTurkey",
      "type": "event"
    },
    {
      "anonymous": false,
      "inputs": [
        {
          "indexed": true,
          "internalType": "address",
          "name": "_from",
          "type": "address"
        },
        {
          "indexed": true,
          "internalType": "address",
          "name": "_to",
          "type": "address"
        },
        {
          "indexed": true,
          "internalType": "uint256",
          "name": "_tokenId",
          "type": "uint256"
        }
      ],
      "name": "Transfer",
      "type": "event"
    },
    {
      "inputs": [
        {
          "internalType": "address",
          "name": "",
          "type": "address"
        }
      ],
      "name": "ownerTurkeyCount",
      "outputs": [
        {
          "internalType": "uint256",
          "name": "",
          "type": "uint256"
        }
      ],
      "stateMutability": "view",
      "type": "function"
    },
    {
      "inputs": [
        {
          "internalType": "uint256",
          "name": "",
          "type": "uint256"
        }
      ],
      "name": "turkeyToOwner",
      "outputs": [
        {
          "internalType": "address",
          "name": "",
          "type": "address"
        }
      ],
      "stateMutability": "view",
      "type": "function"
    },
    {
      "inputs": [
        {
          "internalType": "uint256",
          "name": "",
          "type": "uint256"
        }
      ],
      "name": "turkeys",
      "outputs": [
        {
          "internalType": "uint256",
          "name": "id",
          "type": "uint256"
        },
        {
          "internalType": "string",
          "name": "name",
          "type": "string"
        },
        {
          "internalType": "uint256",
          "name": "dna",
          "type": "uint256"
        },
        {
          "internalType": "address",
          "name": "owner",
          "type": "address"
        }
      ],
      "stateMutability": "view",
      "type": "function"
    },
    {
      "inputs": [],
      "name": "turkeysLength",
      "outputs": [
        {
          "internalType": "uint256",
          "name": "",
          "type": "uint256"
        }
      ],
      "stateMutability": "view",
      "type": "function"
    },
    {
      "inputs": [
        {
          "internalType": "string",
          "name": "_name",
          "type": "string"
        }
      ],
      "name": "generateRandomTurkey",
      "outputs": [],
      "stateMutability": "nonpayable",
      "type": "function"
    },
    {
      "inputs": [
        {
          "internalType": "address",
          "name": "_owner",
          "type": "address"
        }
      ],
      "name": "balanceOf",
      "outputs": [
        {
          "internalType": "uint256",
          "name": "",
          "type": "uint256"
        }
      ],
      "stateMutability": "view",
      "type": "function"
    },
    {
      "inputs": [
        {
          "internalType": "uint256",
          "name": "_tokenId",
          "type": "uint256"
        }
      ],
      "name": "ownerOf",
      "outputs": [
        {
          "internalType": "address",
          "name": "",
          "type": "address"
        }
      ],
      "stateMutability": "view",
      "type": "function"
    },
    {
      "inputs": [
        {
          "internalType": "address",
          "name": "_from",
          "type": "address"
        },
        {
          "internalType": "address",
          "name": "_to",
          "type": "address"
        },
        {
          "internalType": "uint256",
          "name": "_tokenId",
          "type": "uint256"
        }
      ],
      "name": "transferFrom",
      "outputs": [],
      "stateMutability": "payable",
      "type": "function"
    },
    {
      "inputs": [
        {
          "internalType": "address",
          "name": "_approved",
          "type": "address"
        },
        {
          "internalType": "uint256",
          "name": "_tokenId",
          "type": "uint256"
        }
      ],
      "name": "approve",
      "outputs": [],
      "stateMutability": "payable",
      "type": "function"
    }
  ],
  "bytecode": "0x6080604052600a600055600054600a6200001a9190620001be565b6001553480156200002a57600080fd5b506200020f565b7f4e487b7100000000000000000000000000000000000000000000000000000000600052601160045260246000fd5b60008160011c9050919050565b6000808291508390505b6001851115620000bf5780860481111562000097576200009662000031565b5b6001851615620000a75780820291505b8081029050620000b78562000060565b945062000077565b94509492505050565b600082620000da5760019050620001ad565b81620000ea5760009050620001ad565b81600181146200010357600281146200010e5762000144565b6001915050620001ad565b60ff84111562000123576200012262000031565b5b8360020a9150848211156200013d576200013c62000031565b5b50620001ad565b5060208310610133831016604e8410600b84101617156200017e5782820a90508381111562000178576200017762000031565b5b620001ad565b6200018d84848460016200006d565b92509050818404811115620001a757620001a662000031565b5b81810290505b9392505050565b6000819050919050565b6000620001cb82620001b4565b9150620001d883620001b4565b9250620002077fffffffffffffffffffffffffffffffffffffffffffffffffffffffffffffffff8484620000c8565b905092915050565b6110b4806200021f6000396000f3fe6080604052600436106100865760003560e01c80636352211e116100595780636352211e1461013d57806370a082311461017a578063856b9502146101b757806396eaef2e146101e0578063c9ca94cd1461022057610086565b8063095ea7b31461008b57806323b872dd146100a75780632de11cf4146100c35780632e38d0b714610100575b600080fd5b6100a560048036038101906100a09190610a61565b61024b565b005b6100c160048036038101906100bc9190610aa1565b6102fc565b005b3480156100cf57600080fd5b506100ea60048036038101906100e59190610af4565b61030c565b6040516100f79190610b30565b60405180910390f35b34801561010c57600080fd5b5061012760048036038101906101229190610b4b565b61033f565b6040516101349190610b87565b60405180910390f35b34801561014957600080fd5b50610164600480360381019061015f9190610af4565b610357565b6040516101719190610b30565b60405180910390f35b34801561018657600080fd5b506101a1600480360381019061019c9190610b4b565b610394565b6040516101ae9190610b87565b60405180910390f35b3480156101c357600080fd5b506101de60048036038101906101d99190610ce8565b6103dd565b005b3480156101ec57600080fd5b5061020760048036038101906102029190610af4565b6103f8565b6040516102179493929190610db9565b60405180910390f35b34801561022c57600080fd5b506102356104e0565b6040516102429190610b87565b60405180910390f35b816006600083815260200190815260200160002060006101000a81548173ffffffffffffffffffffffffffffffffffffffff021916908373ffffffffffffffffffffffffffffffffffffffff160217905550808273ffffffffffffffffffffffffffffffffffffffff163373ffffffffffffffffffffffffffffffffffffffff167f8c5be1e5ebec7d5bd14f71427d1e84f3dd0314c0f7b2291e5b200ac8c7c3b92560405160405180910390a45050565b6103078383836104ed565b505050565b60036020528060005260406000206000915054906101000a900473ffffffffffffffffffffffffffffffffffffffff1681565b60046020528060005260406000206000915090505481565b60006003600083815260200190815260200160002060009054906101000a900473ffffffffffffffffffffffffffffffffffffffff169050919050565b6000600460008373ffffffffffffffffffffffffffffffffffffffff1673ffffffffffffffffffffffffffffffffffffffff168152602001908152602001600020549050919050565b60006103e8826106ad565b90506103f482826106f2565b5050565b6005818154811061040857600080fd5b906000526020600020906004020160009150905080600001549080600101805461043190610e34565b80601f016020809104026020016040519081016040528092919081815260200182805461045d90610e34565b80156104aa5780601f1061047f576101008083540402835291602001916104aa565b820191906000526020600020905b81548152906001019060200180831161048d57829003601f168201915b5050505050908060020154908060030160009054906101000a900473ffffffffffffffffffffffffffffffffffffffff16905084565b6000600580549050905090565b600460008373ffffffffffffffffffffffffffffffffffffffff1673ffffffffffffffffffffffffffffffffffffffff168152602001908152602001600020600081548092919061053d90610e95565b9190505550600460008473ffffffffffffffffffffffffffffffffffffffff1673ffffffffffffffffffffffffffffffffffffffff168152602001908152602001600020600081548092919061059290610ede565b9190505550816003600083815260200190815260200160002060006101000a81548173ffffffffffffffffffffffffffffffffffffffff021916908373ffffffffffffffffffffffffffffffffffffffff16021790555033600582815481106105fe576105fd610f08565b5b906000526020600020906004020160030160006101000a81548173ffffffffffffffffffffffffffffffffffffffff021916908373ffffffffffffffffffffffffffffffffffffffff160217905550808273ffffffffffffffffffffffffffffffffffffffff168473ffffffffffffffffffffffffffffffffffffffff167fddf252ad1be2c89b69c2b068fc378daa952ba7f163c4a11628f55a4df523b3ef60405160405180910390a4505050565b600080826040516020016106c19190610f73565b6040516020818303038152906040528051906020012060001c9050600154816106ea9190610fb9565b915050919050565b60006005805490509050600560405180608001604052808381526020018581526020018481526020013373ffffffffffffffffffffffffffffffffffffffff168152509080600181540180825580915050600190039060005260206000209060040201600090919091909150600082015181600001556020820151816001019080519060200190610784929190610916565b506040820151816002015560608201518160030160006101000a81548173ffffffffffffffffffffffffffffffffffffffff021916908373ffffffffffffffffffffffffffffffffffffffff1602179055505050336003600083815260200190815260200160002060006101000a81548173ffffffffffffffffffffffffffffffffffffffff021916908373ffffffffffffffffffffffffffffffffffffffff16021790555061087d6001600460003373ffffffffffffffffffffffffffffffffffffffff1673ffffffffffffffffffffffffffffffffffffffff1681526020019081526020016000205461090090919063ffffffff16565b600460003373ffffffffffffffffffffffffffffffffffffffff1673ffffffffffffffffffffffffffffffffffffffff168152602001908152602001600020819055507f1b2ffdaa6c1215beb6a2eb83d53cb6f1d858bbc387927ba7c57aa390a2b065e98184846040516108f393929190610fea565b60405180910390a1505050565b6000818361090e9190611028565b905092915050565b82805461092290610e34565b90600052602060002090601f016020900481019282610944576000855561098b565b82601f1061095d57805160ff191683800117855561098b565b8280016001018555821561098b579182015b8281111561098a57825182559160200191906001019061096f565b5b509050610998919061099c565b5090565b5b808211156109b557600081600090555060010161099d565b5090565b6000604051905090565b600080fd5b600080fd5b600073ffffffffffffffffffffffffffffffffffffffff82169050919050565b60006109f8826109cd565b9050919050565b610a08816109ed565b8114610a1357600080fd5b50565b600081359050610a25816109ff565b92915050565b6000819050919050565b610a3e81610a2b565b8114610a4957600080fd5b50565b600081359050610a5b81610a35565b92915050565b60008060408385031215610a7857610a776109c3565b5b6000610a8685828601610a16565b9250506020610a9785828601610a4c565b9150509250929050565b600080600060608486031215610aba57610ab96109c3565b5b6000610ac886828701610a16565b9350506020610ad986828701610a16565b9250506040610aea86828701610a4c565b9150509250925092565b600060208284031215610b0a57610b096109c3565b5b6000610b1884828501610a4c565b91505092915050565b610b2a816109ed565b82525050565b6000602082019050610b456000830184610b21565b92915050565b600060208284031215610b6157610b606109c3565b5b6000610b6f84828501610a16565b91505092915050565b610b8181610a2b565b82525050565b6000602082019050610b9c6000830184610b78565b92915050565b600080fd5b600080fd5b6000601f19601f8301169050919050565b7f4e487b7100000000000000000000000000000000000000000000000000000000600052604160045260246000fd5b610bf582610bac565b810181811067ffffffffffffffff82111715610c1457610c13610bbd565b5b80604052505050565b6000610c276109b9565b9050610c338282610bec565b919050565b600067ffffffffffffffff821115610c5357610c52610bbd565b5b610c5c82610bac565b9050602081019050919050565b82818337600083830152505050565b6000610c8b610c8684610c38565b610c1d565b905082815260208101848484011115610ca757610ca6610ba7565b5b610cb2848285610c69565b509392505050565b600082601f830112610ccf57610cce610ba2565b5b8135610cdf848260208601610c78565b91505092915050565b600060208284031215610cfe57610cfd6109c3565b5b600082013567ffffffffffffffff811115610d1c57610d1b6109c8565b5b610d2884828501610cba565b91505092915050565b600081519050919050565b600082825260208201905092915050565b60005b83811015610d6b578082015181840152602081019050610d50565b83811115610d7a576000848401525b50505050565b6000610d8b82610d31565b610d958185610d3c565b9350610da5818560208601610d4d565b610dae81610bac565b840191505092915050565b6000608082019050610dce6000830187610b78565b8181036020830152610de08186610d80565b9050610def6040830185610b78565b610dfc6060830184610b21565b95945050505050565b7f4e487b7100000000000000000000000000000000000000000000000000000000600052602260045260246000fd5b60006002820490506001821680610e4c57607f821691505b60208210811415610e6057610e5f610e05565b5b50919050565b7f4e487b7100000000000000000000000000000000000000000000000000000000600052601160045260246000fd5b6000610ea082610a2b565b91507fffffffffffffffffffffffffffffffffffffffffffffffffffffffffffffffff821415610ed357610ed2610e66565b5b600182019050919050565b6000610ee982610a2b565b91506000821415610efd57610efc610e66565b5b600182039050919050565b7f4e487b7100000000000000000000000000000000000000000000000000000000600052603260045260246000fd5b600081905092915050565b6000610f4d82610d31565b610f578185610f37565b9350610f67818560208601610d4d565b80840191505092915050565b6000610f7f8284610f42565b915081905092915050565b7f4e487b7100000000000000000000000000000000000000000000000000000000600052601260045260246000fd5b6000610fc482610a2b565b9150610fcf83610a2b565b925082610fdf57610fde610f8a565b5b828206905092915050565b6000606082019050610fff6000830186610b78565b81810360208301526110118185610d80565b90506110206040830184610b78565b949350505050565b600061103382610a2b565b915061103e83610a2b565b9250827fffffffffffffffffffffffffffffffffffffffffffffffffffffffffffffffff0382111561107357611072610e66565b5b82820190509291505056fea2646970667358221220ea035c1c771a60d043bb1a369f95e004695fb34310d0294d1a59ae6c2c0ed3da64736f6c63430008090033",
  "immutableReferences": {},
  "source": "//SPDX-License-Identifier: UNLICENSED\npragma solidity ^0.8.7;\nimport \"@openzeppelin/contracts/utils/math/SafeMath.sol\";\n//import \"@openzeppelin/contracts/token/ERC721/ERC721.sol\";\nimport \"./ERC721.sol\";\n\n\n\ncontract TurkeyFactory is ERC721{\n\n    using SafeMath for uint256;\n    constructor() ERC721() {}\n\n    uint dnaDigits = 10;\n    uint dnaModulus = 10 ** dnaDigits;\n    uint _turkeysCounter;\n\n    mapping (uint => address) public turkeyToOwner;\n    mapping (address => uint) public ownerTurkeyCount;\n\n    struct Turkey{\n        uint id;\n        string name;\n        uint dna;\n        address owner;\n    }\n    Turkey[] public turkeys;\n\n    event NewTurkey(uint id, string _name, uint _dna);\n    \n\n    function createTurkey(string memory _name, uint _dna) private {\n        uint id = turkeys.length;\n        turkeys.push(Turkey(id, _name, _dna, msg.sender));\n        turkeyToOwner[id] = msg.sender;\n        ownerTurkeyCount[msg.sender] = ownerTurkeyCount[msg.sender].add(1);\n        emit NewTurkey(id, _name, _dna);\n    }\n    \n    function turkeysLength() public view returns(uint){\n        return turkeys.length;\n    }\n\n    function generateRandomDna(string memory _str) private view returns (uint) {\n        uint rand = uint(keccak256(abi.encodePacked(_str)));\n        return rand % dnaModulus;\n    }\n    \n    function getTurkeyDna(uint _turkeyId) private view returns(uint){\n        return turkeys[_turkeyId].dna;\n    }\n\n    function generateRandomTurkey(string memory _name) public {\n        uint randDna = generateRandomDna(_name);\n        createTurkey(_name, randDna);\n    }\n/////////////////////////////////////////////////////////////////////////////////\n    mapping (uint => address) turkeyApprovals;\n\n    function balanceOf(address _owner) external view override returns (uint256) {\n        return ownerTurkeyCount[_owner];\n    }\n\n    function ownerOf(uint256 _tokenId) external view override returns (address) {\n        return turkeyToOwner[_tokenId];\n    }\n\n    function _transfer(address _from, address _to, uint256 _tokenId) private {\n        ownerTurkeyCount[_to]++;\n        ownerTurkeyCount[_from]--;\n        turkeyToOwner[_tokenId] = _to;\n        turkeys[_tokenId].owner = msg.sender;\n        emit Transfer(_from, _to, _tokenId);\n    }\n\n    function transferFrom(address _from, address _to, uint256 _tokenId) public override payable {\n        _transfer(_from, _to, _tokenId);\n    }\n\n    function approve(address _approved, uint256 _tokenId) external override payable {\n        turkeyApprovals[_tokenId] = _approved;\n        emit Approval(msg.sender, _approved, _tokenId);\n    }\n  \n    \n\n}\n",
  "sourcePath": "/Users/adifalcusan/Desktop/Synapsics-internship/marketplace/contracts/TurkeyFactory.sol",
  "compiler": {
    "name": "solc",
    "version": "0.8.9+commit.e5eed63a.Emscripten.clang"
  },
  "schemaVersion": "3.4.3",
  "updatedAt": "2021-10-05T12:15:21.511Z",
  "devdoc": {
    "kind": "dev",
    "methods": {},
    "version": 1
  },
  "userdoc": {
    "kind": "user",
    "methods": {},
    "version": 1
  }
}